:100000000C9453000C947B000C947B000C947B00AC
:100010000C947B000C947B000C947B000C947B0074
:100020000C947B000C947B000C947B000C947B0064
:100030000C947B000C947B000C947B000C947B0054
:100040000C9474040C947B000C948C020C94660247
:100050000C947B000C947B000C947B000C947B0034
:100060000C94BE040C947B000000000025002800C6
:100070002B0000000000240027002A0004040404D0
:100080000404040402020202020203030303030342
:10009000010204081020408001020408102001021F
:1000A000040810203B0C11241FBECFEFD8E0DEBFA8
:1000B000CDBF11E0A0E0B1E0E4E0FBE102C00590BB
:1000C0000D92A236B107D9F726E0A2E6B1E001C051
:1000D0001D92A031B207E1F710E0C3E5D0E004C003
:1000E0002197FE010E94290DC235D107C9F70E9450
:1000F000CC090C94800D0C940000CF92DF92EF920B
:10010000FF920F931F93CF93DF936C017A018B01C2
:10011000C0E0D0E0CE15DF0589F0D8016D918D01EA
:10012000D601ED91FC910190F081E02DC601099579
:10013000892B11F47E0102C02196ECCFC701DF911B
:10014000CF911F910F91FF90EF90DF90CF90089586
:10015000FC01918D828D981761F0828DDF01A80FCF
:10016000B11D5D968C91928D9F5F9F73928F90E0F1
:1001700008958FEF9FEF0895FC01918D828D981760
:1001800031F0828DE80FF11D858D90E008958FEF9D
:100190009FEF0895FC01918D228D892F90E0805C66
:1001A0009F4F821B91098F73992708958CE095E0EA
:1001B0000E94CA0021E0892B09F420E0822F0895D3
:1001C000FC01848DDF01A80FB11DA35ABF4F2C91F4
:1001D000848D90E001968F739927848FA689B789C3
:1001E0002C93A089B1898C9180648C93938D848D9C
:1001F000981306C00288F389E02D80818F7D80836B
:100200000895EF92FF920F931F93CF93DF93EC012A
:1002100081E0888F9B8D8C8D981305C0E889F989C2
:10022000808185FD24C0F62E0B8D10E00F5F1F4FDF
:100230000F731127E02E8C8DE8120CC00FB607FC4F
:10024000FACFE889F989808185FFF5CFCE010E9438
:10025000E000F1CF8B8DFE01E80FF11DE35AFF4F57
:10026000F0820B8FEA89FB898081806207C0EE896A
:10027000FF896083E889F98980818064808381E0D7
:1002800090E0DF91CF911F910F91FF90EF90089533
:10029000CF93DF93EC01888D8823C9F0EA89FB892D
:1002A000808185FD05C0A889B9898C9186FD0FC024
:1002B0000FB607FCF5CF808185FFF2CFA889B989F9
:1002C0008C9185FFEDCFCE010E94E000E7CFDF915A
:1002D000CF91089580E090E0892B29F00E94D6000C
:1002E00081110C940000089585ED8093BC008091ED
:1002F000BC0084FDFCCF1092B001089540918A01AA
:10030000262F30E0240F311D21323105DCF42091FD
:10031000B0012430C9F4FC0180E090E0861758F465
:1003200030918A012191DC01A859BE4FA30FB11D64
:100330002C930196F3CF80918A01680F60938A0114
:1003400080E0089581E0089582E0089508958FEF98
:100350009FEF08958FEF9FEF08958091670190E0E0
:100360009195819591090895CF93DF9300D0CDB7F2
:10037000DEB7CB01642F49835A830E947E014981F5
:10038000842F5A81952F0F900F90DF91CF91089570
:10039000CF93DF931F92CDB7DEB7698361E0CE01C3
:1003A00001960E947E0181E090E00F90DF91CF9155
:1003B000089580E991E00895529A089580E090E0D0
:1003C00008956115710579F0FB0101900020E9F7AE
:1003D0003197AF01461B570BDC01ED91FC91028078
:1003E000F381E02D099480E090E008954F925F92B0
:1003F0006F927F92EF92FF920F931F93CF93DF93B1
:10040000CDB7DEB7A1970FB6F894DEBF0FBECDBF54
:100410007C01FA01CB0119A2223008F42AE08E01F6
:100420000F5D1F4F422E512C612C712CBF01A30177
:1004300092010E94440DF901CA01015011096A306C
:1004400014F4605D01C0695CD8016C93232B242BEC
:10045000252B61F7B801C7010E94E101A1960FB6F3
:10046000F894DEBF0FBECDBFDF91CF911F910F91EA
:10047000FF90EF907F906F905F904F9008950E9453
:100480002F0D0F93CF93DF9300D01F92CDB7DEB720
:10049000AB0119821A821B8200E09E012F5F3F4F41
:1004A000B9010E94F8050F900F900F90DF91CF9146
:1004B0000F9108950F9301E00E94F8050F910895A0
:1004C0000F9300E00E94F8050F9108951F920F927C
:1004D0000FB60F9211242F933F934F935F936F9317
:1004E0007F938F939F93AF93BF93EF93FF938CE092
:1004F00095E00E94E000FF91EF91BF91AF919F9135
:100500008F917F916F915F914F913F912F910F90BC
:100510000FBE0F901F9018951F920F920FB60F925B
:1005200011242F938F939F93EF93FF93E0911C05DA
:10053000F0911D058081E0912205F091230582FD57
:1005400012C09081809125058F5F8F7320912605C1
:10055000821751F0E0912505F0E0E45FFA4F958FA6
:100560008093250501C08081FF91EF919F918F912C
:100570002F910F900FBE0F901F9018953FB7F894D2
:100580008091D7019091D801A091D901B091DA0161
:1005900026B5A89B05C02F3F19F00196A11DB11DDE
:1005A0003FBFBA2FA92F982F8827820F911DA11D19
:1005B000B11DBC01CD0142E0660F771F881F991F56
:1005C0004A95D1F708958F929F92AF92BF92CF92A2
:1005D000DF92EF92FF926B017C010E94BE024B0101
:1005E0005C01C114D104E104F104F1F00E94BE02E7
:1005F000DC01CB0188199909AA09BB09883E9340FF
:10060000A105B10570F321E0C21AD108E108F10893
:1006100088EE880E83E0981EA11CB11CC114D10481
:10062000E104F10419F7DDCFFF90EF90DF90CF9058
:10063000BF90AF909F908F9008951F93CF93DF93BB
:1006400020916501309166012115310541F4109228
:100650006201109263019FEF909364010AC0213000
:10066000310539F49FEF909362011092630110926B
:100670006401803301F581E090E0909366018093FE
:1006800065018FEF80936201109263011092640103
:1006900080E090E02FEFFC01EA50FE4F20831182B2
:1006A00012820396893033E09307A9F7DF91CF9147
:1006B0001F910C94C0088133D1F4109266011092FE
:1006C000650110926201109263018FEF80936401C3
:1006D00080E090E02FEFFC01EA50FE4F1082118283
:1006E00022830396893043E09407A9F7DFCF823352
:1006F00091F5232B09F0E8C040916201309163012C
:100700002091640180E090E0FC01EA50FE4F4083BC
:10071000318322830396893053E09507A9F70E941D
:10072000C00866E970E080E090E00E94E30280E0AB
:1007300090E0FC01EA50FE4F108211821282039673
:10074000893023E09207A9F70E94C00866E970E0AB
:1007500080E090E0B4C08333E1F5C0E0D0E010E881
:10076000FE01EA50FE4F1082118312820E94C008DF
:100770002396C93033E0D30799F7C0E880E090E0D2
:10078000FC01EA50FE4F1082C18312820396893029
:1007900043E09407A9F70E94C00866E970E080E092
:1007A00090E00E94E30280E090E0FC01EA50FE4FFE
:1007B0001082118212820396893053E09507A9F7BF
:1007C0000E94C00866E970E080E090E00E94E302C9
:1007D000D5CF843341F580E090E02FEFFC01EA5063
:1007E000FE4F2083118212820396893033E09307F3
:1007F000A9F70E94C00864EF71E080E090E00E94D9
:10080000E30280E090E0FC01EA50FE4F108211828A
:1008100012820396893043E09407A9F764EF71E0F0
:1008200080E090E04CC0853339F580E090E03FEF08
:1008300025EAFC01EA50FE4F3083218312820396A1
:10084000893053E09507A9F76AEF70E080E090E007
:100850000E94E30280E090E0FC01EA50FE4F10822B
:10086000118212820396893023E09207A9F76AEF7A
:1008700070E080E090E023C0863331F5C0E0D0E046
:1008800010E8FE01EA50FE4F1082118312820E948E
:10089000C0082396C93033E0D30799F780E090E091
:1008A000FC01EA50FE4F10821182128203968930B9
:1008B00043E09407A9F764E670E080E090E0DF9100
:1008C000CF911F910C94E302DF91CF911F91089576
:1008D0002FB7F89460910405709105058091060585
:1008E000909107052FBF08951F920F920FB60F9298
:1008F00011242F933F938F939F93AF93BF93809136
:10090000040590910505A0910605B0910705309169
:10091000D60123E0230F2D3720F40196A11DB11D30
:1009200005C026E8230F0296A11DB11D2093D60114
:100930008093040590930505A0930605B0930705E1
:100940008091D7019091D801A091D901B091DA019D
:100950000196A11DB11D8093D7019093D801A0935A
:10096000D901B093DA01BF91AF919F918F913F91DF
:100970002F910F900FBE0F901F9018951F920F92FE
:100980000FB60F9211242F933F934F935F936F9362
:100990007F938F939F93AF93BF93EF93FF93809138
:1009A000B900887F803609F49CC068F5883209F464
:1009B0005BC090F4803109F454C038F4882309F402
:1009C000F6C0883009F44DC0F6C0883109F44CC037
:1009D000803209F45DC0EFC0803409F468C048F487
:1009E000803309F455C0883309F0E5C08093AF0126
:1009F000D8C0803509F44FC0883509F45DC088340B
:100A000009F0D9C0D6C0883909F4C7C0A8F488371E
:100A100009F467C038F4883609F463C0803709F4F4
:100A200060C0C9C0883809F4B8C0803909F45FC013
:100A3000803809F0C0C05BC0803B09F486C038F440
:100A4000803A09F466C0883A09F47FC0B4C0803C9B
:100A500009F4A7C0883C09F4A4C0883B09F48AC003
:100A6000AAC08091D50110C09091D4018091D3018A
:100A7000981770F5E091D40181E08E0F8093D40136
:100A8000F0E0ED54FE4F80818093BB0085EC86C082
:100A90008093AF018EC0E091D40181E08E0F8093EE
:100AA000D4018091BB00F0E0ED54FE4F8083909123
:100AB000D4018091D3016EC0E091D40181E08E0F0A
:100AC0008093D4018091BB00F0E0ED54FE4F808311
:100AD0008091B20181116DC081E08093B10184EAFF
:100AE00061C083E08093B0011092AE01CFCF8091BE
:100AF000AE01803208F051C0E091AE0181E08E0F6E
:100B00008093AE018091BB00F0E0E257FE4F8083FE
:100B1000BDCF85EC8093BC001092B0018091AE01F6
:100B2000803230F4E091AE01F0E0E257FE4F1082E7
:100B30006091AE0170E0E0918C01F0918D018EE842
:100B400091E009951092AE0136C084E08093B00127
:100B500010928B0110928A01E0918801F091890135
:100B6000099580918A01811105C081E080938A01F5
:100B700010926801E0918B0181E08E0F80938B01D0
:100B8000F0E0E859FE4F80818093BB0090918B018B
:100B900080918A01981708F479CF85E88093BC008A
:100BA0000AC085EC8093BC001092B00104C0109282
:100BB000AF010E947401FF91EF91BF91AF919F919E
:100BC0008F917F916F915F914F913F912F910F90F6
:100BD0000FBE0F901F90189520E0DC0160FF03C04E
:100BE00001C02D932D936250E0F77040D0F7089527
:100BF0004F925F926F927F928F929F92AF92BF922D
:100C0000CF92DF92EF92FF920F931F93CF93DF93D8
:100C1000CDB7DEB72E970FB6F894DEBF0FBECDBFAF
:100C20006C017B015A01F901DC011C968C919081C9
:100C30009B8791819C8792819D87813009F03BC081
:100C4000809108058F5F982F97709093080580FF1B
:100C500002C080E801C080E091FD8064947009F0DA
:100C6000806210E1180FFE013B969E01225F3F4F0C
:100C7000812C992493946191662331F070E0C40132
:100C80000E94DB0C6F5F01C060E0CF010497DC01C4
:100C90006C93712F769F712D1124AF01475051092C
:100CA000DA017C93662319F06150DC016C93E21742
:100CB000F30709F706C01A86198618861F821E8256
:100CC0001D82002311F003E001C000E00E94BE027B
:100CD000F60127853089621B730B6A307105B0F30A
:100CE000F8941BB114608BB18B7F8BB989849E8182
:100CF000482D491B9C847B846D843D815F81588491
:100D00004A84D70111967C91772319F0740F08F467
:100D10007FEF292D729F712D1124D501F70120E05D
:100D2000942F422F622F002C1BB900C077FF8BB984
:100D300060812227889400C000C0002C8BB961110B
:100D4000630F00C0002C1BB900C076FF8BB908F4FC
:100D50006FEF889400C000C000C08BB970FC260FF4
:100D600000C0002C1BB900C075FF8BB92795889473
:100D700071FC260F00C000C0002C8BB92795889409
:100D800000C0002C1BB900C074FF8BB972FC260F89
:100D90002795889400C000C0002C8BB973FC260FE7
:100DA00000C0002C1BB900C073FF8BB92795889435
:100DB00074FC260F00C000C0002C8BB927958894C6
:100DC00000C0002C1BB900C072FF8BB975FC260F48
:100DD0002795889400C000C0002C8BB976FC260FA4
:100DE00000C0002C1BB900C071FF8BB927958894F7
:100DF00077FC260F00C000C0002C8BB92795889483
:100E000000C0002C1BB900C070FF8BB93195350DA7
:100E100000C000C000C0002C8BB9722F00C000C001
:100E20001BB900C077FF8BB962812227889400C06C
:100E300000C0002C8BB96111650F00C0002C1BB9DC
:100E400000C076FF8BB908F46FEF889400C000C033
:100E500000C08BB960FC260F00C0002C1BB900C07D
:100E600075FF8BB92795889461FC260F00C000C0E0
:100E7000002C8BB92795889400C0002C1BB900C0AA
:100E800074FF8BB962FC260F2795889400C000C0C0
:100E9000002C8BB963FC260F00C0002C1BB900C0CE
:100EA00073FF8BB92795889464FC260F00C000C09F
:100EB000002C8BB92795889400C0002C1BB900C06A
:100EC00072FF8BB965FC260F2795889400C000C07F
:100ED000002C8BB966FC260F00C0002C1BB900C08B
:100EE00071FF8BB92795889467FC260F00C000C05E
:100EF000002C8BB92795889400C0002C1BB900C02A
:100F000070FF8BB9E00FF11D8894722F00C000C0F4
:100F1000002C8BB95195540D00C0002C1BB900C09A
:100F200077FF8BB961812227889400C000C0002C14
:100F30008BB96111690F00C0002C1BB900C076FF8E
:100F40008BB908F46FEF889400C000C000C08BB963
:100F500090FC260F00C0002C1BB900C075FF8BB998
:100F60002795889491FC260F00C000C0002C8BB9F7
:100F70002795889400C0002C1BB900C074FF8BB962
:100F800092FC260F2795889400C000C0002C8BB9D6
:100F900093FC260F00C0002C1BB900C073FF8BB957
:100FA0002795889494FC260F00C000C0002C8BB9B4
:100FB0002795889400C0002C1BB900C072FF8BB924
:100FC00095FC260F2795889400C000C0002C8BB993
:100FD00096FC260F00C0002C1BB900C071FF8BB916
:100FE0002795889497FC260F00C000C0002C8BB971
:100FF0002795889400C0002C1BB900C070FF8BB9E6
:101000009195980D722F00C000C000C08BB9119748
:1010100009F08ACE20EE31E0D5010E940E0DDC01F0
:10102000CB01F4E0B695A79597958795FA95D1F7FA
:1010300020E030E0A9016AE9A69E412DB69E400D50
:10104000511D1124840F951FA11DB11D893E43E040
:101050009407A105B10588F1885E9340A109B10903
:1010600042E0B695A795979587954A95D1F747E0C1
:10107000849F212D949F200D311D1124609109051D
:1010800070E0860F971F820F931F409104055091C7
:1010900005056091060570910705292F3327420F3A
:1010A000531F611D711D4093040550930505609306
:1010B0000605709307058093090578940E94BE0287
:1010C000D60150967C936E931F972E960FB6F89488
:1010D000DEBF0FBECDBFDF91CF911F910F91FF906B
:1010E000EF90DF90CF90BF90AF909F908F907F90C8
:1010F0006F905F904F900895CF93DF93C0910A0552
:10110000D0910B05209789F08A819B81009749F047
:101110006D857E859B01220F331F620F731F0E9416
:10112000EC050C80DD81C02DEDCFDF91CF910895CE
:10113000ECE0F5E0A089B18982E08C93A485B585C7
:101140001C92A685B7858FEC8C93108EA489B589E7
:1011500086E08C93A289B3898C9180618C93A2895B
:10116000B3898C9188608C93A289B3898C918068B3
:101170008C930288F389E02D80818F7D8083089590
:101180003F924F925F926F927F928F929F92AF9217
:10119000BF92CF92DF92EF92FF920F931F93CF9364
:1011A000DF9300D01F92CDB7DEB7D090F1058091CC
:1011B000F4059091F505A091F605B091F705892BFE
:1011C0008A2B8B2BE9F00E94BE020091FE05109144
:1011D000FF052091000630910106DC01CB01801B48
:1011E000910BA20BB30B0091F4051091F505209122
:1011F000F6053091F70580179107A207B307B8F2FB
:101200000E94BE026093FE057093FF058093000666
:101210009093010600910A0510910B054D2C512C5D
:10122000612C712C0115110509F461C0D8011C96BF
:10123000CC901C978091F2059091F305843691052E
:1012400010F41C961C92D801ED91FC91A280B38001
:1012500019821A821B82D11014C0F8014585568567
:10126000628173819E012F5F3F4FC801F50109958F
:10127000D8011C96CC921C9714960D911C91159731
:10128000D1CFF8013996CE0101967C0148019CE04E
:10129000890E911CDF0113973C902191332001F1BD
:1012A0002223F1F0822F90E0A0E0B0E09C01AD019C
:1012B0002F5F3F4F4F4F5F4FC301B2010E94340D6C
:1012C0009B01AC01832D90E0A0E0B0E0BC01CD011A
:1012D0006F5F7F4F8F4F9F4F0E94340DD7018C93CC
:1012E000BFEFEB1AFB0AE815F905A1F6B6CF80911E
:1012F000FC059091FD058C010F5F1F4F1093FD05BC
:101300000093FC0549979CF10E9468044B015C0125
:1013100088EE93E0089FB001099F700D189F700D33
:101320001124072E000C880B990BC090F805D09063
:10133000F905E090FA05F090FB05A50194012C1940
:101340003D094E095F090E94440D3093F305209337
:10135000F2051092FD051092FC050E94680460934E
:10136000F8057093F9058093FA059093FB050F90AB
:101370000F900F90DF91CF911F910F91FF90EF9001
:10138000DF90CF90BF90AF909F908F907F906F90A5
:101390005F904F903F900895789484B5826084BDAB
:1013A00084B5816084BD85B5826085BD85B5816069
:1013B00085BD80916E00816080936E0010928100E7
:1013C00080918100826080938100809181008160A2
:1013D0008093810080918000816080938000809163
:1013E000B10084608093B1008091B00081608093EF
:1013F000B00080917A00846080937A0080917A00B6
:10140000826080937A0080917A00816080937A0074
:1014100080917A00806880937A001092C1001092C7
:10142000ED051092EE051092EF051092F005109266
:10143000AB051092AC051092AD051092AE0560EDB3
:1014400077E080E090E00E94E3028CE095E09093EA
:10145000EC058093EB050E9498080E946804609355
:10146000AB057093AC058093AD059093AE056CE32E
:1014700071E08091EB059091EC050E94E1016AE03A
:1014800070E080E090E00E94E302C1E0C093BF05FD
:101490000E947C080E947C0868EB7BE080E090E082
:1014A0000E94E3028091EE01811144C01092E0019C
:1014B0001092DF018FEF8093E3018093E40180932A
:1014C000E5018093E6018093E7018093E801C093F2
:1014D000E9011092EB011092EA011092E2011092E0
:1014E000E10180910A0590910B05892B31F48DED76
:1014F00091E090930B0580930A05E091DB01F09158
:10150000DC01309721F08DED91E0958384838DEDA2
:1015100091E09093DC018093DB011092ED01109239
:10152000EC0182E191E09093DE018093DD0181E0A6
:101530008093EE01E091DD01F091DE010480F58100
:10154000E02D8DED91E0099586EF91E09093E0011B
:101550008093DF0182E091E09093EB018093EA01B8
:10156000E091DD01F091DE010084F185E02D8DED4B
:1015700091E00995009711F19C0140E050E060E492
:1015800072E48FE090E00E94EF0CC090F405D090E0
:10159000F505E090F605F090F705C901DA018C1524
:1015A0009D05AE05BF0510F4D701C6018093F40573
:1015B0009093F505A093F605B093F7058FEF809310
:1015C000E30180EB8093E40180EF8093E50183E603
:1015D0008093F1050E9498088CE095E00E94CA0073
:1015E0001816190634F48CE095E00E94A8000E94B9
:1015F0001D0384EF882E99249394A12CB12C0E9472
:101600006804672B682B692B41F40E9468046230E0
:1016100071058105910508F40BC10E94680460936F
:101620000005709301058093020590930305C09017
:10163000FC04D090FD04E090FE04F090FF046C15D3
:101640007D058E059F0540F46093FC047093FD04B6
:101650008093FE049093FF04C090FC04D090FD049E
:10166000E090FE04F090FF049B01AC012C193D09B1
:101670004E095F0969017A013AEFC316D104E1040A
:10168000F10408F4D5C06093FC047093FD048093CA
:10169000FE049093FF048092B7059092B805A09243
:1016A000B905B092BA051092BB051092BC05109214
:1016B000BD051092BE058091AF059091B005A09137
:1016C000B105B091B2058093B3059093B405A09392
:1016D000B505B093B6050E9468046093AF0570939A
:1016E000B0058093B1059093B2050E9468046093A1
:1016F000AB057093AC058093AD059093AE050E9449
:1017000068046B017C016EE471E08091EB059091BF
:10171000EC050E94E1012AE041E050E060E070E069
:101720008091EB059091EC050E94F60165E571E072
:101730008091EB059091EC050E94E1012AE0B70150
:10174000A6018091EB059091EC050E94F60167E5FA
:1017500071E08091EB059091EC050E94E101809190
:10176000AF059091B005A091B105B091B205B70158
:10177000A601481B590B6A0B7B0B2AE08091EB05F5
:101780009091EC050E94F60167E571E08091EB0510
:101790009091EC050E94E1014091AF055091B00598
:1017A0006091B1057091B2058091B3059091B40537
:1017B000A091B505B091B605481B590B6A0B7B0B80
:1017C0002AE08091EB059091EC050E94F60169E515
:1017D00071E08091EB059091EC050E94E1010E947F
:1017E0006804AB01BC012AE08091EB059091EC0507
:1017F0000E94F601E090EB05F090EC056BE571E0DE
:10180000C7010E94E1016BE471E0C7010E94E101A0
:1018100065E070E080E090E00E94E3020E946804CE
:101820006093AF057093B0058093B1059093B205B6
:101830008CE095E00E94CA0018161906CCF48CE0E2
:1018400095E00E94A800F82EE0910C05F0910D059E
:101850000190F081E02D682F8CE095E009956BE414
:1018600071E08CE095E00E94E1018F2D0E941D0344
:101870000E946A01C4CE10920F0510920E0588EEE8
:1018800093E0A0E0B0E08093100590931105A09341
:101890001205B093130580E291E090930D058093BB
:1018A0000C0585EC90E0909319058093180584EC65
:1018B00090E090931B0580931A0580EC90E0909344
:1018C0001D0580931C0581EC90E090931F0580938B
:1018D0001E0582EC90E0909321058093200586EC14
:1018E00090E0909323058093220510922505109295
:1018F000260510922705109228051092AF05109228
:10190000B0051092B1051092B2051092B305109275
:10191000B4051092B5051092B6051092B705109255
:10192000B8051092B9051092BA051092BB05109235
:10193000BC051092BD051092BE058DE08093030694
:1019400010920206EDE9F0E02491E9E8F0E08491DC
:10195000882399F090E0880F991FFC01EE58FF4F03
:10196000A591B491FC01E859FF4F859194918FB7EF
:10197000F894EC91E22BEC938FBF8FEF8093F105FD
:101980001092F3051092F2051092070610920606C7
:1019900088EE93E0A0E0B0E08093080690930906FB
:1019A000A0930A06B0930B0680E391E0909305069E
:1019B00080930406089597FB072E16F4009407D031
:1019C00077FD09D00E94150D07FC05D03EF49095D7
:1019D00081959F4F0895709561957F4F0895052ECD
:1019E00097FB1EF400940E94060D57FD07D00E943D
:1019F000440D07FC03D04EF40C94060D5095409511
:101A0000309521953F4F4F4F5F4F089590958095AA
:101A1000709561957F4F8F4F9F4F08950E94710D74
:101A2000B7FF0895821B930B0895AA1BBB1B51E1BE
:101A300007C0AA1FBB1FA617B70710F0A61BB70B3E
:101A4000881F991F5A95A9F780959095BC01CD01E3
:101A50000895EE0FFF1F0590F491E02D099481E0A9
:101A600090E0F8940C94800DDB018F939F930E947B
:101A7000660DBF91AF91A29F800D911DA39F900D08
:101A8000B29F900D11240895A1E21A2EAA1BBB1B30
:101A9000FD010DC0AA1FBB1FEE1FFF1FA217B3073A
:101AA000E407F50720F0A21BB30BE40BF50B661F50
:101AB000771F881F991F1A9469F760957095809514
:101AC00090959B01AC01BD01CF0108950E94710D5D
:101AD000A59F900DB49F900DA49F800D911D112482
:101AE0000895A29FB001B39FC001A39F700D811DF7
:101AF0001124911DB29F700D811D1124911D089517
:041B0000F894FFCF87
:101B0400000000003F023F023F023F02DE010000EE
:101B1400000060025A02DC014102D9010000000009
:101B240001017D00CA00A800BC00480100000000BB
:101B3400C801B401AD01AA01A701A601564D445044
:101B4400565F317C315F564D4450560D0A00564D58
:101B54004450455F003A323A007C005F564D445091
:021B640045003A
:107E0000112484B714BE81FFF0D085E080938100F7
:107E100082E08093C00088E18093C10086E0809377
:107E2000C20080E18093C4008EE0C9D0259A86E02C
:107E300020E33CEF91E0309385002093840096BBD3
:107E4000B09BFECF1D9AA8958150A9F7CC24DD24C4
:107E500088248394B5E0AB2EA1E19A2EF3E0BF2EE7
:107E6000A2D0813461F49FD0082FAFD0023811F036
:107E7000013811F484E001C083E08DD089C08234E0
:107E800011F484E103C0853419F485E0A6D080C0E4
:107E9000853579F488D0E82EFF2485D0082F10E0AE
:107EA000102F00270E291F29000F111F8ED06801E7
:107EB0006FC0863521F484E090D080E0DECF843638
:107EC00009F040C070D06FD0082F6DD080E0C81688
:107ED00080E7D80618F4F601B7BEE895C0E0D1E017
:107EE00062D089930C17E1F7F0E0CF16F0E7DF06D8
:107EF00018F0F601B7BEE89568D007B600FCFDCFD4
:107F0000A601A0E0B1E02C9130E011968C91119780
:107F100090E0982F8827822B932B1296FA010C0160
:107F200087BEE89511244E5F5F4FF1E0A038BF0790
:107F300051F7F601A7BEE89507B600FCFDCF97BE46
:107F4000E89526C08437B1F42ED02DD0F82E2BD052
:107F50003CD0F601EF2C8F010F5F1F4F84911BD097
:107F6000EA94F801C1F70894C11CD11CFA94CF0C13
:107F7000D11C0EC0853739F428D08EE10CD085E9AC
:107F80000AD08FE07ACF813511F488E018D01DD067
:107F900080E101D065CF982F8091C00085FFFCCF94
:107FA0009093C60008958091C00087FFFCCF809118
:107FB000C00084FD01C0A8958091C6000895E0E648
:107FC000F0E098E1908380830895EDDF803219F02E
:107FD00088E0F5DFFFCF84E1DECF1F93182FE3DFCA
:107FE0001150E9F7F2DF1F91089580E0E8DFEE27F6
:047FF000FF270994CA
:027FFE00040479
:0400000300007E007B
:00000001FF