:100000000C9453000C947B000C947B000C947B00AC
:100010000C947B000C947B000C947B000C947B0074
:100020000C947B000C947B000C947B000C947B0064
:100030000C947B000C947B000C947B000C947B0054
:100040000C9426040C947B000C944A020C94240219
:100050000C947B000C947B000C947B000C947B0034
:100060000C9470040C947B00000000002500280014
:100070002B0000000000240027002A0004040404D0
:100080000404040402020202020203030303030342
:10009000010204081020408001020408102001021F
:1000A000040810209F0A11241FBECFEFD8E0DEBF46
:1000B000CDBF11E0A0E0B1E0ECE8F7E102C00590AF
:1000C0000D92A034B107D9F725E0A0E4B1E001C05A
:1000D0001D92AE39B207E1F710E0C3E5D0E004C0ED
:1000E0002197FE010E94AA0BC235D107C9F70E94D1
:1000F0004F090C94C40B0C940000CF92DF92EF9246
:10010000FF920F931F93CF93DF936C017A018B01C2
:10011000C0E0D0E0CE15DF0589F0D8016D918D01EA
:10012000D601ED91FC910190F081E02DC601099579
:10013000892B11F47E0102C02196ECCFC701DF911B
:10014000CF911F910F91FF90EF90DF90CF90089586
:10015000FC01918D828D981761F0828DDF01A80FCF
:10016000B11D5D968C91928D9F5F9F73928F90E0F1
:1001700008958FEF9FEF0895FC01918D828D981760
:1001800031F0828DE80FF11D858D90E008958FEF9D
:100190009FEF0895FC01918D228D892F90E0805C66
:1001A0009F4F821B91098F739927089582EE94E0E7
:1001B0000E94CA0021E0892B09F420E0822F0895D3
:1001C000FC01848DDF01A80FB11DA35ABF4F2C91F4
:1001D000848D90E001968F739927848FA689B789C3
:1001E0002C93A089B1898C9180648C93938D848D9C
:1001F000981306C00288F389E02D80818F7D80836B
:100200000895EF92FF920F931F93CF93DF93EC012A
:1002100081E0888F9B8D8C8D981305C0E889F989C2
:10022000808185FD24C0F62E0B8D10E00F5F1F4FDF
:100230000F731127E02E8C8DE8120CC00FB607FC4F
:10024000FACFE889F989808185FFF5CFCE010E9438
:10025000E000F1CF8B8DFE01E80FF11DE35AFF4F57
:10026000F0820B8FEA89FB898081806207C0EE896A
:10027000FF896083E889F98980818064808381E0D7
:1002800090E0DF91CF911F910F91FF90EF90089533
:10029000CF93DF93EC01888D8823C9F0EA89FB892D
:1002A000808185FD05C0A889B9898C9186FD0FC024
:1002B0000FB607FCF5CF808185FFF2CFA889B989F9
:1002C0008C9185FFEDCFCE010E94E000E7CFDF915A
:1002D000CF91089580E090E0892B29F00E94D6000C
:1002E00081110C940000089585ED8093BC008091ED
:1002F000BC0084FDFCCF10928E01089540916801EE
:10030000262F30E0240F311D21323105DCF42091FD
:100310008E012430C9F4FC0180E090E0861758F487
:10032000309168012191DC01AA5BBE4FA30FB11D82
:100330002C930196F3CF80916801680F6093680158
:1003400080E0089581E0089582E0089508958FEF98
:100350009FEF08958FEF9FEF08958091450190E002
:100360009195819591090895CF93DF9300D0CDB7F2
:10037000DEB7CB01642F49835A830E947E014981F5
:10038000842F5A81952F0F900F90DF91CF91089570
:10039000CF93DF931F92CDB7DEB7698361E0CE01C3
:1003A00001960E947E0181E090E00F90DF91CF9155
:1003B000089580E991E00895529A089580E090E0D0
:1003C0000895CF93DF93C091E004D091E10420978A
:1003D00089F08A819B81009749F06D857E859B011C
:1003E000220F331F620F731F0E9422080C80DD81D1
:1003F000C02DEDCFDF91CF9108950E94BF0B0F93D9
:10040000CF93DF9300D01F92CDB7DEB7AB01198237
:100410001A821B8200E09E012F5F3F4FB9010E94AC
:100420009E050F900F900F90DF91CF910F9108953F
:100430000F9301E00E949E050F9108950F9300E035
:100440000E949E050F9108951F920F920FB60F9272
:1004500011242F933F934F935F936F937F938F93C9
:100460009F93AF93BF93EF93FF9382EE94E00E942C
:10047000E000FF91EF91BF91AF919F918F917F919C
:100480006F915F914F913F912F910F900FBE0F9001
:100490001F9018951F920F920FB60F9211242F9351
:1004A0008F939F93EF93FF93E091F204F091F30405
:1004B0008081E091F804F091F90482FD12C09081EE
:1004C0008091FB048F5F8F732091FC04821751F0A1
:1004D000E091FB04F0E0EE51FB4F958F8093FB041D
:1004E00001C08081FF91EF919F918F912F910F908B
:1004F0000FBE0F901F9018953FB7F8948091B501EB
:100500009091B601A091B701B091B80126B5A89B12
:1005100005C02F3F19F00196A11DB11D3FBFBA2F95
:10052000A92F982F8827820F911DA11DB11DBC01F5
:10053000CD0142E0660F771F881F991F4A95D1F7BA
:1005400008958F929F92AF92BF92CF92DF92EF92D7
:10055000FF926B017C010E947C024B015C01C11483
:10056000D104E104F104F1F00E947C02DC01CB0132
:1005700088199909AA09BB09883E9340A105B105CC
:1005800070F321E0C21AD108E108F10888EE880E64
:1005900083E0981EA11CB11CC114D104E104F10434
:1005A00019F7DDCFFF90EF90DF90CF90BF90AF9025
:1005B0009F908F9008951F93CF93DF9320914301D5
:1005C000309144012115310541F4109240011092FF
:1005D00041019FEF909342010AC02130310539F467
:1005E0009FEF90934001109241011092420180339D
:1005F00001F581E090E090934401809343018FEFF7
:1006000080934001109241011092420180E090E0FD
:100610002FEFFC01EC52FE4F2083118212820396D1
:10062000893033E09307A9F7DF91CF911F910C94A4
:100630002E088133D1F4109244011092430110929C
:100640004001109241018FEF8093420180E090E0E1
:100650002FEFFC01EC52FE4F108211822283039691
:10066000893043E09407A9F7DFCF823391F5232B3C
:1006700009F0E8C0409140013091410120914201D0
:1006800080E090E0FC01EC52FE4F408331832283F6
:100690000396893053E09507A9F70E942E0866E972
:1006A00070E080E090E00E94A10280E090E0FC0118
:1006B000EC52FE4F1082118212820396893023E0A1
:1006C0009207A9F70E942E0866E970E080E090E0AA
:1006D000B4C08333E1F5C0E0D0E010E8FE01EC5295
:1006E000FE4F1082118312820E942E082396C93079
:1006F00033E0D30799F7C0E880E090E0FC01EC52CA
:10070000FE4F1082C18312820396893043E0940722
:10071000A9F70E942E0866E970E080E090E00E9450
:10072000A10280E090E0FC01EC52FE4F10821182A9
:1007300012820396893053E09507A9F70E942E088C
:1007400066E970E080E090E00E94A102D5CF84339A
:1007500041F580E090E02FEFFC01EC52FE4F20834A
:10076000118212820396893033E09307A9F70E9421
:100770002E0864EF71E080E090E00E94A10280E02A
:1007800090E0FC01EC52FE4F10821182128203961F
:10079000893043E09407A9F764EF71E080E090E0CE
:1007A0004CC0853339F580E090E03FEF25EAFC014D
:1007B000EC52FE4F3083218312820396893053E03E
:1007C0009507A9F76AEF70E080E090E00E94A1022F
:1007D00080E090E0FC01EC52FE4F10821182128208
:1007E0000396893023E09207A9F76AEF70E080E072
:1007F00090E023C0863331F5C0E0D0E010E8FE0180
:10080000EC52FE4F1082118312820E942E08239612
:10081000C93033E0D30799F780E090E0FC01EC5257
:10082000FE4F1082118212820396893043E09407B2
:10083000A9F764E670E080E090E0DF91CF911F912E
:100840000C94A102DF91CF911F9108951F920F92F6
:100850000FB60F9211242F933F938F939F93AF93D3
:10086000BF938091DC049091DD04A091DE04B091EF
:10087000DF043091B40123E0230F2D3720F40196DB
:10088000A11DB11D05C026E8230F0296A11DB11DB3
:100890002093B4018093DC049093DD04A093DE04E4
:1008A000B093DF048091B5019091B601A091B7019A
:1008B000B091B8010196A11DB11D8093B50190932F
:1008C000B601A093B701B093B801BF91AF919F91CA
:1008D0008F913F912F910F900FBE0F901F90189501
:1008E0001F920F920FB60F9211242F933F934F93A5
:1008F0005F936F937F938F939F93AF93BF93EF9388
:10090000FF938091B900887F803609F49CC068F518
:10091000883209F45BC090F4803109F454C038F493
:10092000882309F4F6C0883009F44DC0F6C0883138
:1009300009F44CC0803209F45DC0EFC0803409F482
:1009400068C048F4803309F455C0883309F0E5C025
:1009500080938D01D8C0803509F44FC0883509F4E3
:100960005DC0883409F0D9C0D6C0883909F4C7C041
:10097000A8F4883709F467C038F4883609F463C0EE
:10098000803709F460C0C9C0883809F4B8C080391C
:1009900009F45FC0803809F0C0C05BC0803B09F437
:1009A00086C038F4803A09F466C0883A09F47FC0FA
:1009B000B4C0803C09F4A7C0883C09F4A4C0883BBB
:1009C00009F48AC0AAC08091B30110C09091B2010D
:1009D0008091B101981770F5E091B20181E08E0F1E
:1009E0008093B201F0E0EF56FE4F80818093BB0010
:1009F00085EC86C080938D018EC0E091B20181E0CC
:100A00008E0F8093B2018091BB00F0E0EF56FE4F55
:100A100080839091B2018091B1016EC0E091B201EA
:100A200081E08E0F8093B2018091BB00F0E0EF5621
:100A3000FE4F80838091900181116DC081E0809391
:100A40008F0184EA61C083E080938E0110928C0153
:100A5000CFCF80918C01803208F051C0E0918C01A1
:100A600081E08E0F80938C018091BB00F0E0E4590F
:100A7000FE4F8083BDCF85EC8093BC0010928E0129
:100A800080918C01803230F4E0918C01F0E0E459E7
:100A9000FE4F108260918C0170E0E0916A01F0914C
:100AA0006B018CE691E0099510928C0136C084E0D0
:100AB00080938E011092690110926801E0916601A5
:100AC000F0916701099580916801811105C081E06D
:100AD0008093680110924601E091690181E08E0FD8
:100AE00080936901F0E0EA5BFE4F80818093BB0058
:100AF0009091690180916801981708F479CF85E891
:100B00008093BC000AC085EC8093BC0010928E01DB
:100B100004C010928D010E947401FF91EF91BF916A
:100B2000AF919F918F917F916F915F914F913F9185
:100B30002F910F900FBE0F901F9018954F925F92BC
:100B40006F927F928F929F92AF92BF92CF92DF92DD
:100B5000EF92FF920F931F93CF93DF93CDB7DEB742
:100B60002E970FB6F894DEBF0FBECDBF6C017B0190
:100B70005A01F901DC011C968C9190819B8791812F
:100B80009C8792819D87813009F03BC08091DA0477
:100B90008F5F982F97709093DA0480FF02C080E8EF
:100BA00001C080E091FD8064947009F0806210E1E2
:100BB000180FFE013B969E01225F3F4F812C992426
:100BC00093946191662331F070E0C4010E942F0B71
:100BD0006F5F01C060E0CF010497DC016C93712F5F
:100BE000769F712D1124AF0147505109DA017C9392
:100BF000662319F06150DC016C93E217F30709F7E3
:100C000006C01A86198618861F821E821D8200233E
:100C100011F003E001C000E00E947C02F60127858C
:100C20003089621B730B6A307105B0F3F8941BB105
:100C300014608BB18B7F8BB989849E81482D491BB1
:100C40009C847B846D843D815F8158844A84D70174
:100C500011967C91772319F0740F08F47FEF292DFA
:100C6000729F712D1124D501F70120E0942F422F9E
:100C7000622F002C1BB900C077FF8BB9608122273F
:100C8000889400C000C0002C8BB96111630F00C0B4
:100C9000002C1BB900C076FF8BB908F46FEF889465
:100CA00000C000C000C08BB970FC260F00C0002C33
:100CB0001BB900C075FF8BB92795889471FC260F6E
:100CC00000C000C0002C8BB92795889400C0002C70
:100CD0001BB900C074FF8BB972FC260F279588944E
:100CE00000C000C0002C8BB973FC260F00C0002C84
:100CF0001BB900C073FF8BB92795889474FC260F2D
:100D000000C000C0002C8BB92795889400C0002C2F
:100D10001BB900C072FF8BB975FC260F279588940C
:100D200000C000C0002C8BB976FC260F00C0002C40
:100D30001BB900C071FF8BB92795889477FC260FEB
:100D400000C000C0002C8BB92795889400C0002CEF
:100D50001BB900C070FF8BB93195350D00C000C0C4
:100D600000C0002C8BB9722F00C000C01BB900C09E
:100D700077FF8BB962812227889400C000C0002CC5
:100D80008BB96111650F00C0002C1BB900C076FF44
:100D90008BB908F46FEF889400C000C000C08BB915
:100DA00060FC260F00C0002C1BB900C075FF8BB97A
:100DB0002795889461FC260F00C000C0002C8BB9D9
:100DC0002795889400C0002C1BB900C074FF8BB914
:100DD00062FC260F2795889400C000C0002C8BB9B8
:100DE00063FC260F00C0002C1BB900C073FF8BB939
:100DF0002795889464FC260F00C000C0002C8BB996
:100E00002795889400C0002C1BB900C072FF8BB9D5
:100E100065FC260F2795889400C000C0002C8BB974
:100E200066FC260F00C0002C1BB900C071FF8BB9F7
:100E30002795889467FC260F00C000C0002C8BB952
:100E40002795889400C0002C1BB900C070FF8BB997
:100E5000E00FF11D8894722F00C000C0002C8BB9E8
:100E60005195540D00C0002C1BB900C077FF8BB901
:100E700061812227889400C000C0002C8BB96111C9
:100E8000690F00C0002C1BB900C076FF8BB908F4B5
:100E90006FEF889400C000C000C08BB990FC260F93
:100EA00000C0002C1BB900C075FF8BB92795889432
:100EB00091FC260F00C000C0002C8BB927958894A8
:100EC00000C0002C1BB900C074FF8BB992FC260F28
:100ED0002795889400C000C0002C8BB993FC260F86
:100EE00000C0002C1BB900C073FF8BB927958894F4
:100EF00094FC260F00C000C0002C8BB92795889465
:100F000000C0002C1BB900C072FF8BB995FC260FE6
:100F10002795889400C000C0002C8BB996FC260F42
:100F200000C0002C1BB900C071FF8BB927958894B5
:100F300097FC260F00C000C0002C8BB92795889421
:100F400000C0002C1BB900C070FF8BB99195980DA3
:100F5000722F00C000C000C08BB9119709F08ACE73
:100F600020EE31E0D5010E94840BDC01CB01F4E0DE
:100F7000B695A79597958795FA95D1F720E030E03B
:100F8000A9016AE9A69E412DB69E400D511D11246E
:100F9000840F951FA11DB11D893E43E09407A10553
:100FA000B10588F1885E9340A109B10942E0B69588
:100FB000A795979587954A95D1F747E0849F212D6E
:100FC000949F200D311D11246091DB0470E0860F89
:100FD000971F820F931F4091DC045091DD046091B4
:100FE000DE047091DF04292F3327420F531F611D48
:100FF000711D4093DC045093DD046093DE04709314
:10100000DF048093DB0478940E947C02D601509622
:101010007C936E931F972E960FB6F894DEBF0FBE8B
:10102000CDBFDF91CF911F910F91FF90EF90DF9097
:10103000CF90BF90AF909F908F907F906F905F9078
:101040004F90089520E0DC0160FF03C001C02D93A4
:101050002D936250E0F77040D0F708953F924F9281
:101060005F926F927F928F929F92AF92BF92CF9238
:10107000DF92EF92FF920F931F93CF93DF9300D0F5
:101080001F92CDB7DEB7D0907F05809182059091F9
:101090008305A0918405B0918505892B8A2B8B2B24
:1010A000E9F00E947C0200918C0510918D05209141
:1010B0008E0530918F05DC01CB01801B910BA20BBB
:1010C000B30B009182051091830520918405309126
:1010D000850580179107A207B307B8F20E947C022A
:1010E00060938C0570938D0580938E0590938F058A
:1010F0000091E0041091E1044D2C512C612C712CD5
:101100000115110509F461C0D8011C96CC901C97FB
:1011100080918005909181058436910510F41C968C
:101120001C92D801ED91FC91A280B38019821A82A1
:101130001B82D11014C0F8014585568562817381E8
:101140009E012F5F3F4FC801F5010995D8011C96FC
:10115000CC921C9714960D911C911597D1CFF80144
:101160003996CE0101967C0148019CE0890E911CC4
:10117000DF0113973C902191332001F12223F1F0FC
:10118000822F90E0A0E0B0E09C01AD012F5F3F4FC7
:101190004F4F5F4FC301B2010E941F0B9B01AC0177
:1011A000832D90E0A0E0B0E0BC01CD016F5F7F4FE8
:1011B0008F4F9F4F0E941F0BD7018C93BFEFEB1AED
:1011C000FB0AE815F905A1F6B6CF80918A05909142
:1011D0008B059C012F5F3F4F30938B0520938A0531
:1011E00049970CF447C08FB7F8940091DC04109134
:1011F000DD042091DE043091DF048FBFE0918A0589
:10120000F0918B0588EE93E0E89FB001E99F700DA7
:10121000F89F700D1124072E000C880B990BC090BD
:101220008605D0908705E0908805F0908905A90192
:1012300098012C193D094E095F090E94430B309318
:1012400081052093800510928B0510928A052FB797
:10125000F8948091DC049091DD04A091DE04B091BB
:10126000DF042FBF8093860590938705A0938805A0
:10127000B09389050F900F900F90DF91CF911F9140
:101280000F91FF90EF90DF90CF90BF90AF909F9025
:101290008F907F906F905F904F903F9008957894DB
:1012A00084B5826084BD84B5816084BD85B582606B
:1012B00085BD85B5816085BD80916E00816080931C
:1012C0006E00109281008091810082608093810085
:1012D0008091810081608093810080918000816095
:1012E000809380008091B10084608093B1008091F0
:1012F000B00081608093B00080917A008460809318
:101300007A0080917A00826080937A0080917A00DE
:10131000816080937A0080917A00806880937A005F
:101320001092C1000E94E1010E94E10168EB7BE0A4
:1013300080E090E00E94A1028091CC01811145C023
:101340001092BE011092BD018FEF8093C101809376
:10135000C2018093C3018093C4018093C50180932F
:10136000C60181E08093C7011092C9011092C801A3
:101370001092C0011092BF018091E0049091E104AD
:10138000892B31F48BEB91E09093E1048093E0049E
:10139000E091B901F091BA01309721F08BEB91E027
:1013A000958384838BEB91E09093BA018093B9018C
:1013B0001092CB011092CA0182E191E09093BC019E
:1013C0008093BB0181E08093CC01E091BB01F0915F
:1013D000BC010480F581E02D8BEB91E0099584ED53
:1013E00091E09093BE018093BD0182E091E09093E3
:1013F000C9018093C801E091BB01F091BC01008458
:10140000F185E02D8BEB91E00995009729F19C0186
:1014100040E050E060E472E48FE090E00E94650BF1
:10142000722F632F0091820510918305209184050E
:1014300030918505872F962FDA0180179107A20733
:10144000B30710F4D901C8018093820590938305F6
:10145000A0938405B09385058FEF8093C10180EB45
:101460008093C20180EF8093C30183E680937F0560
:10147000E091F204F091F30482E08083E091EE04C5
:10148000F091EF041082E091F004F091F1048FEC00
:1014900080831092FA04E091F604F091F70486E05C
:1014A0008083E091F404F091F50480818061808371
:1014B000E091F404F091F504808188608083E091EC
:1014C000F404F091F504808180688083E091F40455
:1014D000F091F50480818F7D808382EE94E00E94FC
:1014E000CA001816190634F482EE94E00E94A8008F
:1014F0000E94DB0282EE94E00E94CA0018161906D0
:10150000DCF482EE94E00E94A800C82FE091E2048F
:10151000F091E3040190F081E02D682F82EE94E0D9
:10152000099542E050E06CE371E082EE94E00E94A5
:101530007D008C2F0E94DB020E946A01DBCF10929B
:10154000E5041092E40488EE93E0A0E0B0E080931C
:10155000E6049093E704A093E804B093E90480E2E2
:1015600091E09093E3048093E20485EC90E0909303
:10157000EF048093EE0484EC90E09093F104809368
:10158000F00480EC90E09093F3048093F20481ECFB
:1015900090E09093F5048093F40482EC90E09093B3
:1015A000F7048093F60486EC90E09093F90480931E
:1015B000F8041092FB041092FC041092FD041092A7
:1015C000FE048DE08093910510929005EDE9F0E026
:1015D0002491E9E8F0E08491882399F090E0880F65
:1015E000991FFC01EE58FF4FA591B491FC01E859F9
:1015F000FF4F859194918FB7F894EC91E22BEC9387
:101600008FBF8FEF80937F05109281051092800528
:10161000109295051092940588EE93E0A0E0B0E05A
:101620008093960590939705A0939805B09399059C
:1016300080E391E090939305809392050895DB01F8
:101640008F939F930E948B0BBF91AF91A29F800DB0
:10165000911DA39F900DB29F900D1124089597FBAB
:10166000072E16F4009407D077FD09D00E94960B40
:1016700007FC05D03EF4909581959F4F0895709595
:1016800061957F4F0895A1E21A2EAA1BBB1BFD0195
:101690000DC0AA1FBB1FEE1FFF1FA217B307E40751
:1016A000F50720F0A21BB30BE40BF50B661F771FA9
:1016B000881F991F1A9469F7609570958095909589
:1016C0009B01AC01BD01CF010895052E97FB1EF4CF
:1016D00000940E947C0B57FD07D00E94430B07FC2F
:1016E00003D04EF40C947C0B509540953095219589
:1016F0003F4F4F4F5F4F089590958095709561953E
:101700007F4F8F4F9F4F08950E94B00BB7FF0895F2
:10171000821B930B08950E94B00BA59F900DB49F60
:10172000900DA49F800D911D11240895AA1BBB1B31
:1017300051E107C0AA1FBB1FA617B70710F0A61BD1
:10174000B70B881F991F5A95A9F780959095BC01F2
:10175000CD010895EE0FFF1F0590F491E02D09943F
:10176000A29FB001B39FC001A39F700D811D1124E2
:10177000911DB29F700D811D1124911D089581E06E
:0C17800090E0F8940C94C40BF894FFCF98
:10178C0000000000FD01FD01FD01FD01DE01000076
:10179C0000001E021802DC01FF01D901000000004C
:1017AC0001017D00CA00A800BC0048010000000037
:1017BC00C801B401AD01AA01A701A6010D0A0000E0
:107E0000112484B714BE81FFF0D085E080938100F7
:107E100082E08093C00088E18093C10086E0809377
:107E2000C20080E18093C4008EE0C9D0259A86E02C
:107E300020E33CEF91E0309385002093840096BBD3
:107E4000B09BFECF1D9AA8958150A9F7CC24DD24C4
:107E500088248394B5E0AB2EA1E19A2EF3E0BF2EE7
:107E6000A2D0813461F49FD0082FAFD0023811F036
:107E7000013811F484E001C083E08DD089C08234E0
:107E800011F484E103C0853419F485E0A6D080C0E4
:107E9000853579F488D0E82EFF2485D0082F10E0AE
:107EA000102F00270E291F29000F111F8ED06801E7
:107EB0006FC0863521F484E090D080E0DECF843638
:107EC00009F040C070D06FD0082F6DD080E0C81688
:107ED00080E7D80618F4F601B7BEE895C0E0D1E017
:107EE00062D089930C17E1F7F0E0CF16F0E7DF06D8
:107EF00018F0F601B7BEE89568D007B600FCFDCFD4
:107F0000A601A0E0B1E02C9130E011968C91119780
:107F100090E0982F8827822B932B1296FA010C0160
:107F200087BEE89511244E5F5F4FF1E0A038BF0790
:107F300051F7F601A7BEE89507B600FCFDCF97BE46
:107F4000E89526C08437B1F42ED02DD0F82E2BD052
:107F50003CD0F601EF2C8F010F5F1F4F84911BD097
:107F6000EA94F801C1F70894C11CD11CFA94CF0C13
:107F7000D11C0EC0853739F428D08EE10CD085E9AC
:107F80000AD08FE07ACF813511F488E018D01DD067
:107F900080E101D065CF982F8091C00085FFFCCF94
:107FA0009093C60008958091C00087FFFCCF809118
:107FB000C00084FD01C0A8958091C6000895E0E648
:107FC000F0E098E1908380830895EDDF803219F02E
:107FD00088E0F5DFFFCF84E1DECF1F93182FE3DFCA
:107FE0001150E9F7F2DF1F91089580E0E8DFEE27F6
:047FF000FF270994CA
:027FFE00040479
:0400000300007E007B
:00000001FF